{
  "_format": "hh-sol-artifact-1",
  "contractName": "NFT",
  "sourceName": "contracts/NFT.sol",
  "abi": [
    {
      "inputs": [],
      "stateMutability": "nonpayable",
      "type": "constructor"
    },
    {
      "anonymous": false,
      "inputs": [
        {
          "indexed": true,
          "internalType": "address",
          "name": "owner",
          "type": "address"
        },
        {
          "indexed": true,
          "internalType": "address",
          "name": "approved",
          "type": "address"
        },
        {
          "indexed": true,
          "internalType": "uint256",
          "name": "tokenId",
          "type": "uint256"
        }
      ],
      "name": "Approval",
      "type": "event"
    },
    {
      "anonymous": false,
      "inputs": [
        {
          "indexed": true,
          "internalType": "address",
          "name": "owner",
          "type": "address"
        },
        {
          "indexed": true,
          "internalType": "address",
          "name": "operator",
          "type": "address"
        },
        {
          "indexed": false,
          "internalType": "bool",
          "name": "approved",
          "type": "bool"
        }
      ],
      "name": "ApprovalForAll",
      "type": "event"
    },
    {
      "anonymous": false,
      "inputs": [
        {
          "indexed": true,
          "internalType": "address",
          "name": "from",
          "type": "address"
        },
        {
          "indexed": true,
          "internalType": "address",
          "name": "to",
          "type": "address"
        },
        {
          "indexed": true,
          "internalType": "uint256",
          "name": "tokenId",
          "type": "uint256"
        }
      ],
      "name": "Transfer",
      "type": "event"
    },
    {
      "inputs": [
        {
          "internalType": "address",
          "name": "to",
          "type": "address"
        },
        {
          "internalType": "uint256",
          "name": "tokenId",
          "type": "uint256"
        }
      ],
      "name": "approve",
      "outputs": [],
      "stateMutability": "nonpayable",
      "type": "function"
    },
    {
      "inputs": [
        {
          "internalType": "address",
          "name": "owner",
          "type": "address"
        }
      ],
      "name": "balanceOf",
      "outputs": [
        {
          "internalType": "uint256",
          "name": "",
          "type": "uint256"
        }
      ],
      "stateMutability": "view",
      "type": "function"
    },
    {
      "inputs": [
        {
          "internalType": "uint256",
          "name": "tokenId",
          "type": "uint256"
        }
      ],
      "name": "getApproved",
      "outputs": [
        {
          "internalType": "address",
          "name": "",
          "type": "address"
        }
      ],
      "stateMutability": "view",
      "type": "function"
    },
    {
      "inputs": [
        {
          "internalType": "address",
          "name": "owner",
          "type": "address"
        },
        {
          "internalType": "address",
          "name": "operator",
          "type": "address"
        }
      ],
      "name": "isApprovedForAll",
      "outputs": [
        {
          "internalType": "bool",
          "name": "",
          "type": "bool"
        }
      ],
      "stateMutability": "view",
      "type": "function"
    },
    {
      "inputs": [
        {
          "internalType": "string",
          "name": "_tokenURI",
          "type": "string"
        }
      ],
      "name": "mint",
      "outputs": [
        {
          "internalType": "uint256",
          "name": "",
          "type": "uint256"
        }
      ],
      "stateMutability": "nonpayable",
      "type": "function"
    },
    {
      "inputs": [],
      "name": "name",
      "outputs": [
        {
          "internalType": "string",
          "name": "",
          "type": "string"
        }
      ],
      "stateMutability": "view",
      "type": "function"
    },
    {
      "inputs": [
        {
          "internalType": "uint256",
          "name": "tokenId",
          "type": "uint256"
        }
      ],
      "name": "ownerOf",
      "outputs": [
        {
          "internalType": "address",
          "name": "",
          "type": "address"
        }
      ],
      "stateMutability": "view",
      "type": "function"
    },
    {
      "inputs": [
        {
          "internalType": "address",
          "name": "from",
          "type": "address"
        },
        {
          "internalType": "address",
          "name": "to",
          "type": "address"
        },
        {
          "internalType": "uint256",
          "name": "tokenId",
          "type": "uint256"
        }
      ],
      "name": "safeTransferFrom",
      "outputs": [],
      "stateMutability": "nonpayable",
      "type": "function"
    },
    {
      "inputs": [
        {
          "internalType": "address",
          "name": "from",
          "type": "address"
        },
        {
          "internalType": "address",
          "name": "to",
          "type": "address"
        },
        {
          "internalType": "uint256",
          "name": "tokenId",
          "type": "uint256"
        },
        {
          "internalType": "bytes",
          "name": "data",
          "type": "bytes"
        }
      ],
      "name": "safeTransferFrom",
      "outputs": [],
      "stateMutability": "nonpayable",
      "type": "function"
    },
    {
      "inputs": [
        {
          "internalType": "address",
          "name": "operator",
          "type": "address"
        },
        {
          "internalType": "bool",
          "name": "approved",
          "type": "bool"
        }
      ],
      "name": "setApprovalForAll",
      "outputs": [],
      "stateMutability": "nonpayable",
      "type": "function"
    },
    {
      "inputs": [
        {
          "internalType": "bytes4",
          "name": "interfaceId",
          "type": "bytes4"
        }
      ],
      "name": "supportsInterface",
      "outputs": [
        {
          "internalType": "bool",
          "name": "",
          "type": "bool"
        }
      ],
      "stateMutability": "view",
      "type": "function"
    },
    {
      "inputs": [],
      "name": "symbol",
      "outputs": [
        {
          "internalType": "string",
          "name": "",
          "type": "string"
        }
      ],
      "stateMutability": "view",
      "type": "function"
    },
    {
      "inputs": [],
      "name": "tokenCount",
      "outputs": [
        {
          "internalType": "uint256",
          "name": "",
          "type": "uint256"
        }
      ],
      "stateMutability": "view",
      "type": "function"
    },
    {
      "inputs": [
        {
          "internalType": "uint256",
          "name": "tokenId",
          "type": "uint256"
        }
      ],
      "name": "tokenURI",
      "outputs": [
        {
          "internalType": "string",
          "name": "",
          "type": "string"
        }
      ],
      "stateMutability": "view",
      "type": "function"
    },
    {
      "inputs": [
        {
          "internalType": "address",
          "name": "from",
          "type": "address"
        },
        {
          "internalType": "address",
          "name": "to",
          "type": "address"
        },
        {
          "internalType": "uint256",
          "name": "tokenId",
          "type": "uint256"
        }
      ],
      "name": "transferFrom",
      "outputs": [],
      "stateMutability": "nonpayable",
      "type": "function"
    }
  ],
  "bytecode": "0x60806040523480156200001157600080fd5b506040518060400160405280600781526020017f415255204e4654000000000000000000000000000000000000000000000000008152506040518060400160405280600381526020017f4152490000000000000000000000000000000000000000000000000000000000815250816000908051906020019062000096929190620000b8565b508060019080519060200190620000af929190620000b8565b505050620001cd565b828054620000c69062000197565b90600052602060002090601f016020900481019282620000ea576000855562000136565b82601f106200010557805160ff191683800117855562000136565b8280016001018555821562000136579182015b828111156200013557825182559160200191906001019062000118565b5b50905062000145919062000149565b5090565b5b80821115620001645760008160009055506001016200014a565b5090565b7f4e487b7100000000000000000000000000000000000000000000000000000000600052602260045260246000fd5b60006002820490506001821680620001b057607f821691505b60208210811415620001c757620001c662000168565b5b50919050565b612b2780620001dd6000396000f3fe608060405234801561001057600080fd5b50600436106100f55760003560e01c806370a0823111610097578063b88d4fde11610066578063b88d4fde14610284578063c87b56dd146102a0578063d85d3d27146102d0578063e985e9c514610300576100f5565b806370a08231146101fc57806395d89b411461022c5780639f181b5e1461024a578063a22cb46514610268576100f5565b8063095ea7b3116100d3578063095ea7b31461017857806323b872dd1461019457806342842e0e146101b05780636352211e146101cc576100f5565b806301ffc9a7146100fa57806306fdde031461012a578063081812fc14610148575b600080fd5b610114600480360381019061010f9190611b9b565b610330565b6040516101219190611be3565b60405180910390f35b610132610412565b60405161013f9190611c97565b60405180910390f35b610162600480360381019061015d9190611cef565b6104a4565b60405161016f9190611d5d565b60405180910390f35b610192600480360381019061018d9190611da4565b6104ea565b005b6101ae60048036038101906101a99190611de4565b610602565b005b6101ca60048036038101906101c59190611de4565b610662565b005b6101e660048036038101906101e19190611cef565b610682565b6040516101f39190611d5d565b60405180910390f35b61021660048036038101906102119190611e37565b610709565b6040516102239190611e73565b60405180910390f35b6102346107c1565b6040516102419190611c97565b60405180910390f35b610252610853565b60405161025f9190611e73565b60405180910390f35b610282600480360381019061027d9190611eba565b610859565b005b61029e6004803603810190610299919061202f565b61086f565b005b6102ba60048036038101906102b59190611cef565b6108d1565b6040516102c79190611c97565b60405180910390f35b6102ea60048036038101906102e59190612153565b6109e4565b6040516102f79190611e73565b60405180910390f35b61031a6004803603810190610315919061219c565b610a20565b6040516103279190611be3565b60405180910390f35b60007f80ac58cd000000000000000000000000000000000000000000000000000000007bffffffffffffffffffffffffffffffffffffffffffffffffffffffff1916827bffffffffffffffffffffffffffffffffffffffffffffffffffffffff191614806103fb57507f5b5e139f000000000000000000000000000000000000000000000000000000007bffffffffffffffffffffffffffffffffffffffffffffffffffffffff1916827bffffffffffffffffffffffffffffffffffffffffffffffffffffffff1916145b8061040b575061040a82610ab4565b5b9050919050565b6060600080546104219061220b565b80601f016020809104026020016040519081016040528092919081815260200182805461044d9061220b565b801561049a5780601f1061046f5761010080835404028352916020019161049a565b820191906000526020600020905b81548152906001019060200180831161047d57829003601f168201915b5050505050905090565b60006104af82610b1e565b6004600083815260200190815260200160002060009054906101000a900473ffffffffffffffffffffffffffffffffffffffff169050919050565b60006104f582610682565b90508073ffffffffffffffffffffffffffffffffffffffff168373ffffffffffffffffffffffffffffffffffffffff161415610566576040517f08c379a000000000000000000000000000000000000000000000000000000000815260040161055d906122af565b60405180910390fd5b8073ffffffffffffffffffffffffffffffffffffffff16610585610b69565b73ffffffffffffffffffffffffffffffffffffffff1614806105b457506105b3816105ae610b69565b610a20565b5b6105f3576040517f08c379a00000000000000000000000000000000000000000000000000000000081526004016105ea90612341565b60405180910390fd5b6105fd8383610b71565b505050565b61061361060d610b69565b82610c2a565b610652576040517f08c379a0000000000000000000000000000000000000000000000000000000008152600401610649906123d3565b60405180910390fd5b61065d838383610cbf565b505050565b61067d8383836040518060200160405280600081525061086f565b505050565b60008061068e83610fb9565b9050600073ffffffffffffffffffffffffffffffffffffffff168173ffffffffffffffffffffffffffffffffffffffff161415610700576040517f08c379a00000000000000000000000000000000000000000000000000000000081526004016106f79061243f565b60405180910390fd5b80915050919050565b60008073ffffffffffffffffffffffffffffffffffffffff168273ffffffffffffffffffffffffffffffffffffffff16141561077a576040517f08c379a0000000000000000000000000000000000000000000000000000000008152600401610771906124d1565b60405180910390fd5b600360008373ffffffffffffffffffffffffffffffffffffffff1673ffffffffffffffffffffffffffffffffffffffff168152602001908152602001600020549050919050565b6060600180546107d09061220b565b80601f01602080910402602001604051908101604052809291908181526020018280546107fc9061220b565b80156108495780601f1061081e57610100808354040283529160200191610849565b820191906000526020600020905b81548152906001019060200180831161082c57829003601f168201915b5050505050905090565b60075481565b61086b610864610b69565b8383610ff6565b5050565b61088061087a610b69565b83610c2a565b6108bf576040517f08c379a00000000000000000000000000000000000000000000000000000000081526004016108b6906123d3565b60405180910390fd5b6108cb84848484611163565b50505050565b60606108dc82610b1e565b60006006600084815260200190815260200160002080546108fc9061220b565b80601f01602080910402602001604051908101604052809291908181526020018280546109289061220b565b80156109755780601f1061094a57610100808354040283529160200191610975565b820191906000526020600020905b81548152906001019060200180831161095857829003601f168201915b5050505050905060006109866111bf565b905060008151141561099c5781925050506109df565b6000825111156109d15780826040516020016109b992919061252d565b604051602081830303815290604052925050506109df565b6109da846111d6565b925050505b919050565b6000600760008154809291906109f990612580565b9190505550610a0a3360075461123e565b610a166007548361125c565b6007549050919050565b6000600560008473ffffffffffffffffffffffffffffffffffffffff1673ffffffffffffffffffffffffffffffffffffffff16815260200190815260200160002060008373ffffffffffffffffffffffffffffffffffffffff1673ffffffffffffffffffffffffffffffffffffffff16815260200190815260200160002060009054906101000a900460ff16905092915050565b60007f01ffc9a7000000000000000000000000000000000000000000000000000000007bffffffffffffffffffffffffffffffffffffffffffffffffffffffff1916827bffffffffffffffffffffffffffffffffffffffffffffffffffffffff1916149050919050565b610b27816112d0565b610b66576040517f08c379a0000000000000000000000000000000000000000000000000000000008152600401610b5d9061243f565b60405180910390fd5b50565b600033905090565b816004600083815260200190815260200160002060006101000a81548173ffffffffffffffffffffffffffffffffffffffff021916908373ffffffffffffffffffffffffffffffffffffffff160217905550808273ffffffffffffffffffffffffffffffffffffffff16610be483610682565b73ffffffffffffffffffffffffffffffffffffffff167f8c5be1e5ebec7d5bd14f71427d1e84f3dd0314c0f7b2291e5b200ac8c7c3b92560405160405180910390a45050565b600080610c3683610682565b90508073ffffffffffffffffffffffffffffffffffffffff168473ffffffffffffffffffffffffffffffffffffffff161480610c785750610c778185610a20565b5b80610cb657508373ffffffffffffffffffffffffffffffffffffffff16610c9e846104a4565b73ffffffffffffffffffffffffffffffffffffffff16145b91505092915050565b8273ffffffffffffffffffffffffffffffffffffffff16610cdf82610682565b73ffffffffffffffffffffffffffffffffffffffff1614610d35576040517f08c379a0000000000000000000000000000000000000000000000000000000008152600401610d2c9061263b565b60405180910390fd5b600073ffffffffffffffffffffffffffffffffffffffff168273ffffffffffffffffffffffffffffffffffffffff161415610da5576040517f08c379a0000000000000000000000000000000000000000000000000000000008152600401610d9c906126cd565b60405180910390fd5b610db28383836001611311565b8273ffffffffffffffffffffffffffffffffffffffff16610dd282610682565b73ffffffffffffffffffffffffffffffffffffffff1614610e28576040517f08c379a0000000000000000000000000000000000000000000000000000000008152600401610e1f9061263b565b60405180910390fd5b6004600082815260200190815260200160002060006101000a81549073ffffffffffffffffffffffffffffffffffffffff02191690556001600360008573ffffffffffffffffffffffffffffffffffffffff1673ffffffffffffffffffffffffffffffffffffffff168152602001908152602001600020600082825403925050819055506001600360008473ffffffffffffffffffffffffffffffffffffffff1673ffffffffffffffffffffffffffffffffffffffff16815260200190815260200160002060008282540192505081905550816002600083815260200190815260200160002060006101000a81548173ffffffffffffffffffffffffffffffffffffffff021916908373ffffffffffffffffffffffffffffffffffffffff160217905550808273ffffffffffffffffffffffffffffffffffffffff168473ffffffffffffffffffffffffffffffffffffffff167fddf252ad1be2c89b69c2b068fc378daa952ba7f163c4a11628f55a4df523b3ef60405160405180910390a4610fb48383836001611437565b505050565b60006002600083815260200190815260200160002060009054906101000a900473ffffffffffffffffffffffffffffffffffffffff169050919050565b8173ffffffffffffffffffffffffffffffffffffffff168373ffffffffffffffffffffffffffffffffffffffff161415611065576040517f08c379a000000000000000000000000000000000000000000000000000000000815260040161105c90612739565b60405180910390fd5b80600560008573ffffffffffffffffffffffffffffffffffffffff1673ffffffffffffffffffffffffffffffffffffffff16815260200190815260200160002060008473ffffffffffffffffffffffffffffffffffffffff1673ffffffffffffffffffffffffffffffffffffffff16815260200190815260200160002060006101000a81548160ff0219169083151502179055508173ffffffffffffffffffffffffffffffffffffffff168373ffffffffffffffffffffffffffffffffffffffff167f17307eab39ab6107e8899845ad3d59bd9653f200f220920489ca2b5937696c31836040516111569190611be3565b60405180910390a3505050565b61116e848484610cbf565b61117a8484848461143d565b6111b9576040517f08c379a00000000000000000000000000000000000000000000000000000000081526004016111b0906127cb565b60405180910390fd5b50505050565b606060405180602001604052806000815250905090565b60606111e182610b1e565b60006111eb6111bf565b9050600081511161120b5760405180602001604052806000815250611236565b80611215846115c5565b60405160200161122692919061252d565b6040516020818303038152906040525b915050919050565b61125882826040518060200160405280600081525061169d565b5050565b611265826112d0565b6112a4576040517f08c379a000000000000000000000000000000000000000000000000000000000815260040161129b9061285d565b60405180910390fd5b806006600084815260200190815260200160002090805190602001906112cb929190611a8c565b505050565b60008073ffffffffffffffffffffffffffffffffffffffff166112f283610fb9565b73ffffffffffffffffffffffffffffffffffffffff1614159050919050565b600181111561143157600073ffffffffffffffffffffffffffffffffffffffff168473ffffffffffffffffffffffffffffffffffffffff16146113a55780600360008673ffffffffffffffffffffffffffffffffffffffff1673ffffffffffffffffffffffffffffffffffffffff168152602001908152602001600020600082825461139d919061287d565b925050819055505b600073ffffffffffffffffffffffffffffffffffffffff168373ffffffffffffffffffffffffffffffffffffffff16146114305780600360008573ffffffffffffffffffffffffffffffffffffffff1673ffffffffffffffffffffffffffffffffffffffff168152602001908152602001600020600082825461142891906128b1565b925050819055505b5b50505050565b50505050565b600061145e8473ffffffffffffffffffffffffffffffffffffffff166116f8565b156115b8578373ffffffffffffffffffffffffffffffffffffffff1663150b7a02611487610b69565b8786866040518563ffffffff1660e01b81526004016114a9949392919061295c565b6020604051808303816000875af19250505080156114e557506040513d601f19601f820116820180604052508101906114e291906129bd565b60015b611568573d8060008114611515576040519150601f19603f3d011682016040523d82523d6000602084013e61151a565b606091505b50600081511415611560576040517f08c379a0000000000000000000000000000000000000000000000000000000008152600401611557906127cb565b60405180910390fd5b805181602001fd5b63150b7a0260e01b7bffffffffffffffffffffffffffffffffffffffffffffffffffffffff1916817bffffffffffffffffffffffffffffffffffffffffffffffffffffffff1916149150506115bd565b600190505b949350505050565b6060600060016115d48461171b565b01905060008167ffffffffffffffff8111156115f3576115f2611f04565b5b6040519080825280601f01601f1916602001820160405280156116255781602001600182028036833780820191505090505b509050600082602001820190505b600115611692578080600190039150507f3031323334353637383961626364656600000000000000000000000000000000600a86061a8153600a858161167c5761167b6129ea565b5b049450600085141561168d57611692565b611633565b819350505050919050565b6116a7838361186e565b6116b4600084848461143d565b6116f3576040517f08c379a00000000000000000000000000000000000000000000000000000000081526004016116ea906127cb565b60405180910390fd5b505050565b6000808273ffffffffffffffffffffffffffffffffffffffff163b119050919050565b600080600090507a184f03e93ff9f4daa797ed6e38ed64bf6a1f0100000000000000008310611779577a184f03e93ff9f4daa797ed6e38ed64bf6a1f010000000000000000838161176f5761176e6129ea565b5b0492506040810190505b6d04ee2d6d415b85acef810000000083106117b6576d04ee2d6d415b85acef810000000083816117ac576117ab6129ea565b5b0492506020810190505b662386f26fc1000083106117e557662386f26fc1000083816117db576117da6129ea565b5b0492506010810190505b6305f5e100831061180e576305f5e1008381611804576118036129ea565b5b0492506008810190505b6127108310611833576127108381611829576118286129ea565b5b0492506004810190505b60648310611856576064838161184c5761184b6129ea565b5b0492506002810190505b600a8310611865576001810190505b80915050919050565b600073ffffffffffffffffffffffffffffffffffffffff168273ffffffffffffffffffffffffffffffffffffffff1614156118de576040517f08c379a00000000000000000000000000000000000000000000000000000000081526004016118d590612a65565b60405180910390fd5b6118e7816112d0565b15611927576040517f08c379a000000000000000000000000000000000000000000000000000000000815260040161191e90612ad1565b60405180910390fd5b611935600083836001611311565b61193e816112d0565b1561197e576040517f08c379a000000000000000000000000000000000000000000000000000000000815260040161197590612ad1565b60405180910390fd5b6001600360008473ffffffffffffffffffffffffffffffffffffffff1673ffffffffffffffffffffffffffffffffffffffff16815260200190815260200160002060008282540192505081905550816002600083815260200190815260200160002060006101000a81548173ffffffffffffffffffffffffffffffffffffffff021916908373ffffffffffffffffffffffffffffffffffffffff160217905550808273ffffffffffffffffffffffffffffffffffffffff16600073ffffffffffffffffffffffffffffffffffffffff167fddf252ad1be2c89b69c2b068fc378daa952ba7f163c4a11628f55a4df523b3ef60405160405180910390a4611a88600083836001611437565b5050565b828054611a989061220b565b90600052602060002090601f016020900481019282611aba5760008555611b01565b82601f10611ad357805160ff1916838001178555611b01565b82800160010185558215611b01579182015b82811115611b00578251825591602001919060010190611ae5565b5b509050611b0e9190611b12565b5090565b5b80821115611b2b576000816000905550600101611b13565b5090565b6000604051905090565b600080fd5b600080fd5b60007fffffffff0000000000000000000000000000000000000000000000000000000082169050919050565b611b7881611b43565b8114611b8357600080fd5b50565b600081359050611b9581611b6f565b92915050565b600060208284031215611bb157611bb0611b39565b5b6000611bbf84828501611b86565b91505092915050565b60008115159050919050565b611bdd81611bc8565b82525050565b6000602082019050611bf86000830184611bd4565b92915050565b600081519050919050565b600082825260208201905092915050565b60005b83811015611c38578082015181840152602081019050611c1d565b83811115611c47576000848401525b50505050565b6000601f19601f8301169050919050565b6000611c6982611bfe565b611c738185611c09565b9350611c83818560208601611c1a565b611c8c81611c4d565b840191505092915050565b60006020820190508181036000830152611cb18184611c5e565b905092915050565b6000819050919050565b611ccc81611cb9565b8114611cd757600080fd5b50565b600081359050611ce981611cc3565b92915050565b600060208284031215611d0557611d04611b39565b5b6000611d1384828501611cda565b91505092915050565b600073ffffffffffffffffffffffffffffffffffffffff82169050919050565b6000611d4782611d1c565b9050919050565b611d5781611d3c565b82525050565b6000602082019050611d726000830184611d4e565b92915050565b611d8181611d3c565b8114611d8c57600080fd5b50565b600081359050611d9e81611d78565b92915050565b60008060408385031215611dbb57611dba611b39565b5b6000611dc985828601611d8f565b9250506020611dda85828601611cda565b9150509250929050565b600080600060608486031215611dfd57611dfc611b39565b5b6000611e0b86828701611d8f565b9350506020611e1c86828701611d8f565b9250506040611e2d86828701611cda565b9150509250925092565b600060208284031215611e4d57611e4c611b39565b5b6000611e5b84828501611d8f565b91505092915050565b611e6d81611cb9565b82525050565b6000602082019050611e886000830184611e64565b92915050565b611e9781611bc8565b8114611ea257600080fd5b50565b600081359050611eb481611e8e565b92915050565b60008060408385031215611ed157611ed0611b39565b5b6000611edf85828601611d8f565b9250506020611ef085828601611ea5565b9150509250929050565b600080fd5b600080fd5b7f4e487b7100000000000000000000000000000000000000000000000000000000600052604160045260246000fd5b611f3c82611c4d565b810181811067ffffffffffffffff82111715611f5b57611f5a611f04565b5b80604052505050565b6000611f6e611b2f565b9050611f7a8282611f33565b919050565b600067ffffffffffffffff821115611f9a57611f99611f04565b5b611fa382611c4d565b9050602081019050919050565b82818337600083830152505050565b6000611fd2611fcd84611f7f565b611f64565b905082815260208101848484011115611fee57611fed611eff565b5b611ff9848285611fb0565b509392505050565b600082601f83011261201657612015611efa565b5b8135612026848260208601611fbf565b91505092915050565b6000806000806080858703121561204957612048611b39565b5b600061205787828801611d8f565b945050602061206887828801611d8f565b935050604061207987828801611cda565b925050606085013567ffffffffffffffff81111561209a57612099611b3e565b5b6120a687828801612001565b91505092959194509250565b600067ffffffffffffffff8211156120cd576120cc611f04565b5b6120d682611c4d565b9050602081019050919050565b60006120f66120f1846120b2565b611f64565b90508281526020810184848401111561211257612111611eff565b5b61211d848285611fb0565b509392505050565b600082601f83011261213a57612139611efa565b5b813561214a8482602086016120e3565b91505092915050565b60006020828403121561216957612168611b39565b5b600082013567ffffffffffffffff81111561218757612186611b3e565b5b61219384828501612125565b91505092915050565b600080604083850312156121b3576121b2611b39565b5b60006121c185828601611d8f565b92505060206121d285828601611d8f565b9150509250929050565b7f4e487b7100000000000000000000000000000000000000000000000000000000600052602260045260246000fd5b6000600282049050600182168061222357607f821691505b60208210811415612237576122366121dc565b5b50919050565b7f4552433732313a20617070726f76616c20746f2063757272656e74206f776e6560008201527f7200000000000000000000000000000000000000000000000000000000000000602082015250565b6000612299602183611c09565b91506122a48261223d565b604082019050919050565b600060208201905081810360008301526122c88161228c565b9050919050565b7f4552433732313a20617070726f76652063616c6c6572206973206e6f7420746f60008201527f6b656e206f776e6572206f7220617070726f76656420666f7220616c6c000000602082015250565b600061232b603d83611c09565b9150612336826122cf565b604082019050919050565b6000602082019050818103600083015261235a8161231e565b9050919050565b7f4552433732313a2063616c6c6572206973206e6f7420746f6b656e206f776e6560008201527f72206f7220617070726f76656400000000000000000000000000000000000000602082015250565b60006123bd602d83611c09565b91506123c882612361565b604082019050919050565b600060208201905081810360008301526123ec816123b0565b9050919050565b7f4552433732313a20696e76616c696420746f6b656e2049440000000000000000600082015250565b6000612429601883611c09565b9150612434826123f3565b602082019050919050565b600060208201905081810360008301526124588161241c565b9050919050565b7f4552433732313a2061646472657373207a65726f206973206e6f74206120766160008201527f6c6964206f776e65720000000000000000000000000000000000000000000000602082015250565b60006124bb602983611c09565b91506124c68261245f565b604082019050919050565b600060208201905081810360008301526124ea816124ae565b9050919050565b600081905092915050565b600061250782611bfe565b61251181856124f1565b9350612521818560208601611c1a565b80840191505092915050565b600061253982856124fc565b915061254582846124fc565b91508190509392505050565b7f4e487b7100000000000000000000000000000000000000000000000000000000600052601160045260246000fd5b600061258b82611cb9565b91507fffffffffffffffffffffffffffffffffffffffffffffffffffffffffffffffff8214156125be576125bd612551565b5b600182019050919050565b7f4552433732313a207472616e736665722066726f6d20696e636f72726563742060008201527f6f776e6572000000000000000000000000000000000000000000000000000000602082015250565b6000612625602583611c09565b9150612630826125c9565b604082019050919050565b6000602082019050818103600083015261265481612618565b9050919050565b7f4552433732313a207472616e7366657220746f20746865207a65726f2061646460008201527f7265737300000000000000000000000000000000000000000000000000000000602082015250565b60006126b7602483611c09565b91506126c28261265b565b604082019050919050565b600060208201905081810360008301526126e6816126aa565b9050919050565b7f4552433732313a20617070726f766520746f2063616c6c657200000000000000600082015250565b6000612723601983611c09565b915061272e826126ed565b602082019050919050565b6000602082019050818103600083015261275281612716565b9050919050565b7f4552433732313a207472616e7366657220746f206e6f6e20455243373231526560008201527f63656976657220696d706c656d656e7465720000000000000000000000000000602082015250565b60006127b5603283611c09565b91506127c082612759565b604082019050919050565b600060208201905081810360008301526127e4816127a8565b9050919050565b7f45524337323155524953746f726167653a2055524920736574206f66206e6f6e60008201527f6578697374656e7420746f6b656e000000000000000000000000000000000000602082015250565b6000612847602e83611c09565b9150612852826127eb565b604082019050919050565b600060208201905081810360008301526128768161283a565b9050919050565b600061288882611cb9565b915061289383611cb9565b9250828210156128a6576128a5612551565b5b828203905092915050565b60006128bc82611cb9565b91506128c783611cb9565b9250827fffffffffffffffffffffffffffffffffffffffffffffffffffffffffffffffff038211156128fc576128fb612551565b5b828201905092915050565b600081519050919050565b600082825260208201905092915050565b600061292e82612907565b6129388185612912565b9350612948818560208601611c1a565b61295181611c4d565b840191505092915050565b60006080820190506129716000830187611d4e565b61297e6020830186611d4e565b61298b6040830185611e64565b818103606083015261299d8184612923565b905095945050505050565b6000815190506129b781611b6f565b92915050565b6000602082840312156129d3576129d2611b39565b5b60006129e1848285016129a8565b91505092915050565b7f4e487b7100000000000000000000000000000000000000000000000000000000600052601260045260246000fd5b7f4552433732313a206d696e7420746f20746865207a65726f2061646472657373600082015250565b6000612a4f602083611c09565b9150612a5a82612a19565b602082019050919050565b60006020820190508181036000830152612a7e81612a42565b9050919050565b7f4552433732313a20746f6b656e20616c7265616479206d696e74656400000000600082015250565b6000612abb601c83611c09565b9150612ac682612a85565b602082019050919050565b60006020820190508181036000830152612aea81612aae565b905091905056fea2646970667358221220e63a2ec16cbb7d227255bec6335118a6b4c31536eca4b6ae92916bf9cdf955b664736f6c634300080b0033",
  "linkReferences": {},
  "deployedLinkReferences": {}
}